:020000040800F2
:10000000700A002089010008B30B00084D0B00089E
:10001000B10B00088F020008430E0008000000002A
:10002000000000000000000000000000CD0D0008EE
:100030009102000800000000CB0D0008CF0D000861
:10004000A3010008A3010008A3010008A301000800
:10005000A3010008A3010008A3010008A3010008F0
:10006000A3010008A3010008A3010008A3010008E0
:10007000A3010008A3010008A3010008A3010008D0
:10008000A3010008A3010008A3010008A3010008C0
:10009000A3010008A3010008A3010008A3010008B0
:1000A000A3010008A3010008A3010008A3010008A0
:1000B000A3010008A3010008A3010008A301000890
:1000C000A3010008A3010008A3010008A301000880
:1000D000A3010008A3010008A3010008A301000870
:1000E000A3010008A3010008A301000800F002F822
:1000F00000F03AF80AA090E8000C82448344AAF188
:100100000107DA4501D100F02FF8AFF2090EBAE885
:100110000F0013F0010F18BFFB1A43F0010318473B
:10012000800D0000A00D0000103A24BF78C878C1EF
:10013000FAD8520724BF30C830C144BF04680C60ED
:10014000704700000023002400250026103A28BF35
:1001500078C1FBD8520728BF30C148BF0B60704739
:100160001FB51FBD10B510BD00F05CF81146FFF7BC
:10017000F7FF00F077FE00F07AF803B4FFF7F2FF24
:1001800003BC00F07DF8000009488047094800479B
:10019000FEE7FEE7FEE7FEE7FEE7FEE7FEE7FEE737
:1001A000FEE7FEE704480549054A064B7047000094
:1001B000410E0008ED00000870040020700A0020C5
:1001C00070060020700600204FF0000200B51346B4
:1001D00094469646203922BFA0E80C50A0E80C5067
:1001E000B1F12001BFF4F7AF090728BFA0E80C5018
:1001F00048BF0CC05DF804EB890028BF40F8042B11
:1002000008BF704748BF20F8022B11F0804F18BF7D
:1002100000F8012B704770477047704700487047DF
:10022000100400207546FFF7F9FFAE460500694649
:10023000534620F00700854618B020B5FFF7B2FFFF
:10024000BDE820404FF000064FF000074FF00008D7
:100250004FF0000B21F00701AC46ACE8C009ACE858
:10026000C009ACE8C009ACE8C0098D46704710B5BC
:100270000446AFF300802046BDE81040FFF77DBF85
:1002800001491820ABBEFEE7260002007047FEE7DA
:10029000704700002DE9F84FDFF8B8910024A9F16C
:1002A000040B23460F2709F1040AABF1040EC9E041
:1002B0000125A5402A40AA427DD1674ED1F804C04D
:1002C000ACEB0608B44532D014DCBCF1030F3AD0D5
:1002D00009DCBCF1000F2AD0BCF1010F1CD0BCF12D
:1002E000020F31D11DE0BCF1110F17D0BCF1120F7C
:1002F0002AD119E0B8F5881F19D006DCB8F5803F7F
:1003000015D0B8F5801F1FD111E0B8F5001F0ED031
:10031000B8F5041F18D10AE0CB6815E0CB681B1DA7
:1003200012E0CB6808330FE0CB680C330CE08B682D
:100330002BB1012B4FF0080303D0456104E00423E7
:1003400002E0056100E00023FF2A01D8064601E033
:1003500000F104064FEA840501D9A5F12005D6F87D
:10036000008007FA05FC28EA0C0803FA05F548EABC
:100370000508C6F800804D68ED0062D5374DAE69BE
:1003800046F00106AE61AD6924F0030605F00105F3
:100390000095334D06EB050CDCF80850A607360F28
:1003A00007FA06F825EA0805DFF8B880404503D1CA
:1003B0004FF0000817E044E0DFF8AC80404502D180
:1003C0004FF001080FE0DFF8A480404502D14FF064
:1003D000020808E0DFF89880404502D14FF003089A
:1003E00001E04FF0040808FA06F848EA0508CCF8DE
:1003F00008804D68D9F80060ED024D4601D51643DE
:1004000000E096432E604D68DAF80060AD02554674
:1004100001D5164300E096432E604D68DBF800607E
:10042000AD035D4601D5164300E096432E604D684E
:10043000DEF80060ED03754601D5164300E09643F3
:100440002E60641C0D682A46E5407FF431AFBDE89C
:10045000F88F000008040140000011100010024055
:100460000000014000080140000C01400010014064
:10047000001401400AB1016170470904FBE7000064
:100480000148806870470000000000200248816831
:10049000027811448160704700000020074810B5C1
:1004A000016841F010010160032000F067F80F209F
:1004B00000F006F800F024F8002010BD00200240F3
:1004C00070B50D4D04464FF47A712878B1FBF0F009
:1004D0000A490968B1FBF0F000F024FB48B9102C80
:1004E00007D200222146501E00F028F800206C6040
:1004F00070BD012070BD0000000000200C00002035
:100500000C4808B5816941F001018161816901F000
:1005100001010091C16941F08051C161C06900F0E1
:10052000805000900448416821F0E06141F0007182
:10053000416008BD0010024000000140F0B40E4BC5
:100540001B680C46C3F30223C3F10705042D00D931
:100550000425191D072901D2002300E0DB1E012616
:1005600006FA05F1491E214099409E40761E16402C
:100570003143F0BC00F066BC0CED00E0064900F031
:10058000070208684FF6FF03184040EA0220034ABA
:1005900010430860704700000CED00E00000FA0511
:1005A0002DE9F84305460078354CC00754D0E06982
:1005B0000026C00008D4E06940F08050E061E069A6
:1005C000012600F0805000902E480168C90512D421
:1005D0000168804641F480710160FFF751FF0746D2
:1005E00005E000BFFFF74CFFC01B642823D8D8F8F4
:1005F0000000C005F6D5206A10F4407021D0A9880B
:1006000001F4407181421CD0206A1F49012220F46C
:1006100040700A6000220A602062C00711D0FFF714
:100620002FFF074641F2883808E000BFFFF728FF98
:10063000C11B414502D90320BDE8F883206A800729
:10064000F4D5206A696820F44070084320621EB126
:10065000E06920F08050E0612878800705D5606867
:10066000A96820F44040084360602878C00605D59A
:100670006068E96820F48000084360600020DBE7E0
:100680000010024000700040400442422DE9F04753
:100690000F46050061D0434E306800F00700B842B5
:1006A00009D2306820F0070038433060306800F02D
:1006B0000700B84251D128683B4C810712D540074A
:1006C00003D5606840F4E06060602878000703D5D7
:1006D000606840F4605060606068A96820F0F000D5
:1006E000084360602878C00728D06868012810D0C7
:1006F0002168022810D0890700292EDA616821F0CC
:10070000030101436160FFF7BBFE804641F2883977
:100710000DE021688903EFE78901EDE7FFF7B0FEFF
:10072000A0EB0801494502D90320BDE8F0876068C5
:10073000696800F00C00B0EB810FEFD1306800F079
:100740000700B8420BD9306820F00700384330600A
:10075000306800F00700B84201D00120E5E72878B2
:10076000400705D56068E96820F4E06008436060F0
:100770002878000706D56068296920F4605040EAAF
:10078000C100606000F018F86168084AC1F3031105
:10079000515CC8400649086006480068FFF790FEB3
:1007A0000020C2E70020024000100240900E000826
:1007B0000C000020040000200E4A51680E4801F091
:1007C0000C03042B11D0082B0FD10C48C1F3834329
:1007D000C903C05C0AD55168084AC1F34041921E62
:1007E000515C054A5043B0FBF1F07047044948435F
:1007F000704700000010024000127A00800E0008CE
:1008000000093D002DE9F84F040070D02078C04D5C
:10081000C00749D06868C0F38100012807D0686824
:10082000C0F38100022809D16868C00306D5286892
:10083000800339D560680028E7D035E06068B0F5FE
:10084000803F0BD010B1B0F5A02F11D0286820F454
:1008500080302860286820F4802002E0286840F476
:1008600080302860606890B1FFF70AFE06460AE013
:10087000286840F480202860F0E700BFFFF700FE02
:10088000801B642873D828688003F7D50CE0FFF735
:10089000F7FD064605E000BFFFF7F2FD801B642868
:1008A000F0D828688003F7D420789A4E80074FF05C
:1008B00001094FF0000839D5686810F00C0F07D017
:1008C0006868C0F38100022809D16868C00306D4B3
:1008D0002868800714D52069012808D110E0206914
:1008E000B0B1C6F80090FFF7CBFD074605E00AE17E
:1008F000FFF7C6FDC01B0228C4D828688007F7D5BB
:100900002868616920F0F80040EAC10028600DE025
:10091000C6F80080FFF7B4FD074604E0FFF7B0FD1E
:10092000C01B022823D828688007F7D42078000746
:100930002CD57948A169D9B1C0F80090FFF7A0FD86
:10094000074604E0FFF79CFDC01B02280FD8686A29
:100950008007F7D571484FF4FA510068B0FBF1F009
:10096000009000BF0098411E0091FAD20EE080E096
:10097000C0F80080FFF784FD074604E0FFF780FD24
:10098000C01B022875D8686A8007F7D42078400712
:1009900060D5E8690027C00008D4E86940F08050BD
:1009A000E861E869012700F0805000905C48016828
:1009B000C90513D40168834641F480710160FFF7D3
:1009C0005FFD824606E000BFFFF75AFDA0EB0A007C
:1009D00064284ED8DBF80000C005F5D5E068012892
:1009E0000AD008B1052813D0286A20F00100286237
:1009F000286A20F0040002E0286A40F00100286222
:100A0000E06841F2883B98B1FFF73AFD82460BE07F
:100A1000286A40F004002862EEE700BFFFF730FDCF
:100A2000A0EB0A0159455AD8286A8007F6D50CE090
:100A3000FFF726FD824605E0FFF722FDA0EB0A0145
:100A400059454CD8286A8007F6D41FB1E86920F0D0
:100A50008050E861E06988B36968C1F381010229C7
:100A600044D00228C6F8608004D0FFF709FD044690
:100A700038E034E0FFF704FD074604E0FFF700FD2F
:100A8000C01B02282BD828688001F7D4206AB0F553
:100A9000803F05D16868A16820F400300843686091
:100AA000D4E908010843696821F4741108436860B7
:100AB000C6F86090FFF7E4FC044606E025E000BFBE
:100AC000FFF7DEFC001B022809D828688001F7D553
:100AD0001BE000BFFFF7D4FC001B022802D9032053
:100AE000BDE8F88F28688001F4D40EE00128F7D023
:100AF0006868226A00F48031914204D1616A00F48E
:100B00007010884201D00120EAE70020E8E70000E9
:100B10000010024000004242800442420C000020CB
:100B20000070004010B5401EB0F1807F01D301205D
:100B300010BD4FF0E02460610F21601700F082F9D2
:100B40000020A06107202061002010BDFEE700000A
:100B500070B586B000241448009401940294039464
:100B6000816941F004018161816901F0040104910E
:100B7000816941F00801816180690C4E00F0080034
:100B80004FF440750490002229463046FFF772FC6E
:100B900001200095CDE9010402200390694630460A
:100BA000FFF778FB06B070BD00100240000C01405A
:100BB000FEE7FEE710B50021074C0A46002004EBD3
:100BC000C1131A54401CC0B28028FAD3491CC9B2C0
:100BD0000829F3D310BD00001000002010B500203C
:100BE0004FF47A720021491C9142FCD3401C904280
:100BF000F8D3012000F0B0F8BDE81040012000F06B
:100C0000B3B870B500240646802525FA04F03040BC
:100C100000D0012000F0A8F8012000F09DF800208D
:100C200000F09AF8641CE4B2082CEED3012000F026
:100C300093F8BDE87040002000F08EB810B5012098
:100C400000F092F8012000F087F8002000F08CF806
:100C5000BDE81040002000F07FB810B5002000F083
:100C600083F8012000F078F8BDE81040012000F082
:100C70007BB810B5FFF7B2FFAE2000F07DF8D520AD
:100C800000F07AF8802000F077F8A82000F074F8DF
:100C90003F2000F071F8D32000F06EF8002000F043
:100CA0006BF8402000F068F8A12000F065F8C8203B
:100CB00000F062F8DA2000F05FF8122000F05CF833
:100CC000812000F059F8CF2000F056F8D92000F02C
:100CD00053F8F12000F050F8DB2000F04DF8302000
:100CE00000F04AF8A42000F047F8A62000F044F8ED
:100CF0008D2000F041F8142000F03EF8AF2000F005
:100D00003BF8FFF757FFBDE8104000F011B810B5F1
:100D10000C4640F0B00000F02FF8102040EA14100C
:100D200000F02AF804F00F00BDE8104000F024B8ED
:100D300070B5084D002400212046FFF7E8FF05EBC1
:100D4000C410802100F029F8641CE4B2082CF2D30E
:100D500070BD00001000002002464FF48071014871
:100D6000FFF788BB000C014002464FF400710148B8
:100D7000FFF780BB000C014010B50446FFF75EFF93
:100D80007820FFF73EFF0020FFF73BFF2046FFF7EC
:100D900038FFBDE81040FFF760BF70B50D4606464E
:100DA000FFF74CFF7820FFF72CFF4020FFF729FFCB
:100DB000002404E0305DFFF724FF641CE4B2AC4281
:100DC000F8D3BDE87040FFF748BF70477047FFF7A2
:100DD0005DBB30B593B028216846FFF7F5F91421C3
:100DE0000AA8FFF7F1F9002401250F940A200090CA
:100DF000102010941194CDE90450CDE906541294BA
:100E00006846FFF7FFFC08B172B6FEE70F20CDE998
:100E10000A040C940D9400210AA80E94FFF736FCE6
:100E200008B172B6FEE74FF40070CDE90F500FA87D
:100E3000FFF7B6FB002801D072B6FEE713B030BD55
:100E40007047FEE70907090E002804DB00F1E020E7
:100E500080F80014704700F00F0000F1E02080F8E7
:100E6000141D7047FFF71AFBFFF7B3FFFFF770FE83
:100E7000FFF7FFFEFFF79EFEFFF75AFFFEE70102B6
:100E800002030405060708090A0B0C0D0E0F1010CB
:100E9000000000000000000001020304060708092A
:100EA000C00E00080000002010000000280100080B
:100EB000D00E000810000020600A00004401000865
:100EC00001000000100000000000000000127A0085
:04000005080000ED02
:00000001FF
